{
  "_format": "hh-sol-artifact-1",
  "contractName": "ImaturityInterface",
  "sourceName": "contracts/IMaturity.sol",
  "abi": [
    {
      "inputs": [],
      "stateMutability": "nonpayable",
      "type": "constructor"
    },
    {
      "inputs": [],
      "name": "lastUpdated",
      "outputs": [
        {
          "internalType": "uint256",
          "name": "",
          "type": "uint256"
        }
      ],
      "stateMutability": "view",
      "type": "function"
    },
    {
      "inputs": [],
      "name": "tenMinutesHavePassed",
      "outputs": [
        {
          "internalType": "bool",
          "name": "",
          "type": "bool"
        }
      ],
      "stateMutability": "view",
      "type": "function"
    },
    {
      "inputs": [],
      "name": "updateTimestamp",
      "outputs": [],
      "stateMutability": "nonpayable",
      "type": "function"
    }
  ],
  "bytecode": "0x608060405234801561001057600080fd5b50426001819055506101b7806100276000396000f3fe608060405234801561001057600080fd5b50600436106100415760003560e01c80631c5be3d71461004657806369fadd8b14610050578063d0b06f5d1461006e575b600080fd5b61004e61008c565b005b610058610095565b60405161006591906100cf565b60405180910390f35b6100766100ae565b6040516100839190610103565b60405180910390f35b42600081905550565b6000600a6001546100a6919061014d565b421015905090565b60005481565b60008115159050919050565b6100c9816100b4565b82525050565b60006020820190506100e460008301846100c0565b92915050565b6000819050919050565b6100fd816100ea565b82525050565b600060208201905061011860008301846100f4565b92915050565b7f4e487b7100000000000000000000000000000000000000000000000000000000600052601160045260246000fd5b6000610158826100ea565b9150610163836100ea565b925082820190508082111561017b5761017a61011e565b5b9291505056fea2646970667358221220ea64b752dfe7d2898ba2b240d611b9553a70e860f2a9a956f6d91eb550e1136c64736f6c63430008110033",
  "linkReferences": {},
  "deployedLinkReferences": {}
}