{
  "_format": "hh-sol-artifact-1",
  "contractName": "liquidityPool",
  "sourceName": "contracts/liquidityPool.sol",
  "abi": [
    {
      "inputs": [],
      "name": "WBTCReserve",
      "outputs": [
        {
          "internalType": "uint256",
          "name": "",
          "type": "uint256"
        }
      ],
      "stateMutability": "view",
      "type": "function"
    },
    {
      "inputs": [],
      "name": "amountBorrowed",
      "outputs": [
        {
          "internalType": "uint256",
          "name": "",
          "type": "uint256"
        }
      ],
      "stateMutability": "view",
      "type": "function"
    },
    {
      "inputs": [],
      "name": "amountDeposited",
      "outputs": [
        {
          "internalType": "uint256",
          "name": "",
          "type": "uint256"
        }
      ],
      "stateMutability": "view",
      "type": "function"
    },
    {
      "inputs": [
        {
          "internalType": "address",
          "name": "",
          "type": "address"
        }
      ],
      "name": "borrow",
      "outputs": [
        {
          "internalType": "uint256",
          "name": "",
          "type": "uint256"
        }
      ],
      "stateMutability": "view",
      "type": "function"
    },
    {
      "inputs": [
        {
          "internalType": "address",
          "name": "_borrower",
          "type": "address"
        },
        {
          "internalType": "uint256",
          "name": "_WBTCAmount",
          "type": "uint256"
        }
      ],
      "name": "borrowWBTC",
      "outputs": [
        {
          "internalType": "uint256",
          "name": "",
          "type": "uint256"
        }
      ],
      "stateMutability": "payable",
      "type": "function"
    },
    {
      "inputs": [],
      "name": "borrowedWBTC",
      "outputs": [
        {
          "internalType": "uint256",
          "name": "",
          "type": "uint256"
        }
      ],
      "stateMutability": "view",
      "type": "function"
    },
    {
      "inputs": [
        {
          "internalType": "address",
          "name": "_provider",
          "type": "address"
        },
        {
          "internalType": "uint256",
          "name": "_WBTCAmount",
          "type": "uint256"
        }
      ],
      "name": "provideLiquidity",
      "outputs": [
        {
          "internalType": "bool",
          "name": "",
          "type": "bool"
        }
      ],
      "stateMutability": "payable",
      "type": "function"
    },
    {
      "inputs": [
        {
          "internalType": "address",
          "name": "",
          "type": "address"
        }
      ],
      "name": "userLiquidity",
      "outputs": [
        {
          "internalType": "uint256",
          "name": "",
          "type": "uint256"
        }
      ],
      "stateMutability": "view",
      "type": "function"
    }
  ],
  "bytecode": "0x608060405234801561001057600080fd5b50610680806100206000396000f3fe60806040526004361061007b5760003560e01c8063b86c06201161004e578063b86c062014610143578063ba4c28c314610173578063f82cec02146101b0578063f86ccd41146101db5761007b565b8063250d6916146100805780633f0ead02146100ab5780635fea6120146100e8578063b717e99714610118575b600080fd5b34801561008c57600080fd5b50610095610206565b6040516100a291906103c3565b60405180910390f35b3480156100b757600080fd5b506100d260048036038101906100cd9190610441565b61020c565b6040516100df91906103c3565b60405180910390f35b61010260048036038101906100fd919061049a565b610224565b60405161010f91906104f5565b60405180910390f35b34801561012457600080fd5b5061012d6102a7565b60405161013a91906103c3565b60405180910390f35b61015d6004803603810190610158919061049a565b6102b1565b60405161016a91906103c3565b60405180910390f35b34801561017f57600080fd5b5061019a60048036038101906101959190610441565b610375565b6040516101a791906103c3565b60405180910390f35b3480156101bc57600080fd5b506101c561038d565b6040516101d291906103c3565b60405180910390f35b3480156101e757600080fd5b506101f0610393565b6040516101fd91906103c3565b60405180910390f35b60015481565b60046020528060005260406000206000915090505481565b60008060005490508260008082825461023d919061053f565b9250508190555082600260008673ffffffffffffffffffffffffffffffffffffffff1673ffffffffffffffffffffffffffffffffffffffff16815260200190815260200160002081905550600054811061029b5760009150506102a1565b60019150505b92915050565b6000600154905090565b600081600054116102f7576040517f08c379a00000000000000000000000000000000000000000000000000000000081526004016102ee906105f6565b60405180910390fd5b81600460008573ffffffffffffffffffffffffffffffffffffffff1673ffffffffffffffffffffffffffffffffffffffff168152602001908152602001600020819055508160008082825461034c9190610616565b925050819055508160016000828254610365919061053f565b9250508190555081905092915050565b60026020528060005260406000206000915090505481565b60005481565b60006001546000546103a5919061053f565b905090565b6000819050919050565b6103bd816103aa565b82525050565b60006020820190506103d860008301846103b4565b92915050565b600080fd5b600073ffffffffffffffffffffffffffffffffffffffff82169050919050565b600061040e826103e3565b9050919050565b61041e81610403565b811461042957600080fd5b50565b60008135905061043b81610415565b92915050565b600060208284031215610457576104566103de565b5b60006104658482850161042c565b91505092915050565b610477816103aa565b811461048257600080fd5b50565b6000813590506104948161046e565b92915050565b600080604083850312156104b1576104b06103de565b5b60006104bf8582860161042c565b92505060206104d085828601610485565b9150509250929050565b60008115159050919050565b6104ef816104da565b82525050565b600060208201905061050a60008301846104e6565b92915050565b7f4e487b7100000000000000000000000000000000000000000000000000000000600052601160045260246000fd5b600061054a826103aa565b9150610555836103aa565b925082820190508082111561056d5761056c610510565b5b92915050565b600082825260208201905092915050565b7f506f6f6c20646f6573206e6f7420686176652073756666696369656e7420667560008201527f6e64210000000000000000000000000000000000000000000000000000000000602082015250565b60006105e0602383610573565b91506105eb82610584565b604082019050919050565b6000602082019050818103600083015261060f816105d3565b9050919050565b6000610621826103aa565b915061062c836103aa565b925082820390508181111561064457610643610510565b5b9291505056fea2646970667358221220f4f7d2e32096d71c8756c31692158b68e18571b226a3730b9f927180d7ee22d864736f6c63430008110033",
  "linkReferences": {},
  "deployedLinkReferences": {}
}