{
  "_format": "hh-sol-artifact-1",
  "contractName": "balanceSheet",
  "sourceName": "contracts/balancesheet.sol",
  "abi": [
    {
      "inputs": [],
      "name": "BY",
      "outputs": [
        {
          "internalType": "uint256",
          "name": "",
          "type": "uint256"
        }
      ],
      "stateMutability": "view",
      "type": "function"
    },
    {
      "inputs": [],
      "name": "RR",
      "outputs": [
        {
          "internalType": "uint256",
          "name": "",
          "type": "uint256"
        }
      ],
      "stateMutability": "view",
      "type": "function"
    },
    {
      "inputs": [],
      "name": "borrowingInterestModel",
      "outputs": [
        {
          "internalType": "uint256",
          "name": "",
          "type": "uint256"
        }
      ],
      "stateMutability": "nonpayable",
      "type": "function"
    },
    {
      "inputs": [],
      "name": "checkMaturity",
      "outputs": [],
      "stateMutability": "nonpayable",
      "type": "function"
    },
    {
      "inputs": [],
      "name": "maturity",
      "outputs": [
        {
          "internalType": "bool",
          "name": "",
          "type": "bool"
        }
      ],
      "stateMutability": "view",
      "type": "function"
    },
    {
      "inputs": [],
      "name": "maturityContract",
      "outputs": [
        {
          "internalType": "address",
          "name": "",
          "type": "address"
        }
      ],
      "stateMutability": "view",
      "type": "function"
    },
    {
      "inputs": [
        {
          "internalType": "uint256",
          "name": "numerator",
          "type": "uint256"
        },
        {
          "internalType": "uint256",
          "name": "denominator",
          "type": "uint256"
        },
        {
          "internalType": "uint256",
          "name": "precisionset",
          "type": "uint256"
        }
      ],
      "name": "percent",
      "outputs": [
        {
          "internalType": "uint256",
          "name": "quotient",
          "type": "uint256"
        }
      ],
      "stateMutability": "pure",
      "type": "function"
    },
    {
      "inputs": [],
      "name": "poolContract",
      "outputs": [
        {
          "internalType": "address",
          "name": "",
          "type": "address"
        }
      ],
      "stateMutability": "view",
      "type": "function"
    },
    {
      "inputs": [],
      "name": "ratio",
      "outputs": [
        {
          "internalType": "uint256",
          "name": "",
          "type": "uint256"
        }
      ],
      "stateMutability": "view",
      "type": "function"
    },
    {
      "inputs": [],
      "name": "savingInterestModel",
      "outputs": [
        {
          "internalType": "uint256",
          "name": "",
          "type": "uint256"
        }
      ],
      "stateMutability": "nonpayable",
      "type": "function"
    },
    {
      "inputs": [],
      "name": "savingRate",
      "outputs": [
        {
          "internalType": "uint256",
          "name": "",
          "type": "uint256"
        }
      ],
      "stateMutability": "view",
      "type": "function"
    },
    {
      "inputs": [],
      "name": "utilisationRatio",
      "outputs": [
        {
          "internalType": "uint256",
          "name": "",
          "type": "uint256"
        }
      ],
      "stateMutability": "nonpayable",
      "type": "function"
    },
    {
      "inputs": [],
      "name": "variableRate",
      "outputs": [
        {
          "internalType": "uint256",
          "name": "",
          "type": "uint256"
        }
      ],
      "stateMutability": "view",
      "type": "function"
    }
  ],
  "bytecode": "0x608060405260086000556064600155600054608261001d919061011a565b6002556002600855738431717927c4a3343bcf1626e7b5b1d31e240406600960006101000a81548173ffffffffffffffffffffffffffffffffffffffff021916908373ffffffffffffffffffffffffffffffffffffffff16021790555073d9145cce52d386f254917e481eb44e9943f39138600a60006101000a81548173ffffffffffffffffffffffffffffffffffffffff021916908373ffffffffffffffffffffffffffffffffffffffff1602179055503480156100db57600080fd5b5061015c565b6000819050919050565b7f4e487b7100000000000000000000000000000000000000000000000000000000600052601160045260246000fd5b6000610125826100e1565b9150610130836100e1565b925082820261013e816100e1565b91508282048414831517610155576101546100eb565b5b5092915050565b610c4a8061016b6000396000f3fe608060405234801561001057600080fd5b50600436106100ce5760003560e01c806388d52ef71161008c578063b292e33411610066578063b292e334146101f3578063b7e957dc14610211578063cc0970761461022f578063dc38710a1461024d576100ce565b806388d52ef7146101995780639212ac59146101b7578063a4723e2e146101d5576100ce565b80622c1a9e146100d357806305f99ffc146101035780631455a46d14610121578063204f83f91461013f57806324e0d4601461015d57806371ca337d1461017b575b600080fd5b6100ed60048036038101906100e891906107b3565b610257565b6040516100fa9190610815565b60405180910390f35b61010b6102b4565b6040516101189190610815565b60405180910390f35b61012961031a565b6040516101369190610815565b60405180910390f35b610147610320565b604051610154919061084b565b60405180910390f35b610165610333565b6040516101729190610815565b60405180910390f35b610183610339565b6040516101909190610815565b60405180910390f35b6101a161033f565b6040516101ae91906108a7565b60405180910390f35b6101bf610357565b6040516101cc9190610815565b60405180910390f35b6101dd610568565b6040516101ea9190610815565b60405180910390f35b6101fb6106a8565b60405161020891906108a7565b60405180910390f35b6102196106c0565b6040516102269190610815565b60405180910390f35b6102376106c6565b6040516102449190610815565b60405180910390f35b6102556106cc565b005b60008060018361026791906108f1565b600a6102739190610a58565b8561027e9190610aa3565b90506000600a600586846102929190610b14565b61029c91906108f1565b6102a69190610b14565b905080925050509392505050565b6000806102bf610568565b90506002548160015460016102d49190610aa3565b6102de9190610b45565b6102e89190610aa3565b6004819055506004546001546002546103019190610aa3565b61030b9190610b45565b60038190555060035491505090565b60035481565b600760009054906101000a900460ff1681565b60045481565b60055481565b738431717927c4a3343bcf1626e7b5b1d31e24040681565b60008060019050600960009054906101000a900473ffffffffffffffffffffffffffffffffffffffff1673ffffffffffffffffffffffffffffffffffffffff1663f86ccd416040518163ffffffff1660e01b81526004016020604051808303816000875af11580156103cd573d6000803e3d6000fd5b505050506040513d601f19601f820116820180604052508101906103f19190610b8e565b6008546103fe9190610aa3565b600960009054906101000a900473ffffffffffffffffffffffffffffffffffffffff1673ffffffffffffffffffffffffffffffffffffffff1663f86ccd416040518163ffffffff1660e01b81526004016020604051808303816000875af115801561046d573d6000803e3d6000fd5b505050506040513d601f19601f820116820180604052508101906104919190610b8e565b60035461049e9190610aa3565b6104a891906108f1565b600681905550600960009054906101000a900473ffffffffffffffffffffffffffffffffffffffff1673ffffffffffffffffffffffffffffffffffffffff1663b717e9976040518163ffffffff1660e01b81526004016020604051808303816000875af115801561051d573d6000803e3d6000fd5b505050506040513d601f19601f820116820180604052508101906105419190610b8e565b8160065461054f9190610aa3565b6105599190610b14565b60068190555060065491505090565b600061069a600960009054906101000a900473ffffffffffffffffffffffffffffffffffffffff1673ffffffffffffffffffffffffffffffffffffffff1663b717e9976040518163ffffffff1660e01b81526004016020604051808303816000875af11580156105dc573d6000803e3d6000fd5b505050506040513d601f19601f820116820180604052508101906106009190610b8e565b600960009054906101000a900473ffffffffffffffffffffffffffffffffffffffff1673ffffffffffffffffffffffffffffffffffffffff1663f86ccd416040518163ffffffff1660e01b81526004016020604051808303816000875af115801561066f573d6000803e3d6000fd5b505050506040513d601f19601f820116820180604052508101906106939190610b8e565b6002610257565b600581905550600554905090565b73d9145cce52d386f254917e481eb44e9943f3913881565b60085481565b60065481565b600a60009054906101000a900473ffffffffffffffffffffffffffffffffffffffff1673ffffffffffffffffffffffffffffffffffffffff166369fadd8b6040518163ffffffff1660e01b8152600401602060405180830381865afa158015610739573d6000803e3d6000fd5b505050506040513d601f19601f8201168201806040525081019061075d9190610be7565b600760006101000a81548160ff021916908315150217905550565b600080fd5b6000819050919050565b6107908161077d565b811461079b57600080fd5b50565b6000813590506107ad81610787565b92915050565b6000806000606084860312156107cc576107cb610778565b5b60006107da8682870161079e565b93505060206107eb8682870161079e565b92505060406107fc8682870161079e565b9150509250925092565b61080f8161077d565b82525050565b600060208201905061082a6000830184610806565b92915050565b60008115159050919050565b61084581610830565b82525050565b6000602082019050610860600083018461083c565b92915050565b600073ffffffffffffffffffffffffffffffffffffffff82169050919050565b600061089182610866565b9050919050565b6108a181610886565b82525050565b60006020820190506108bc6000830184610898565b92915050565b7f4e487b7100000000000000000000000000000000000000000000000000000000600052601160045260246000fd5b60006108fc8261077d565b91506109078361077d565b925082820190508082111561091f5761091e6108c2565b5b92915050565b60008160011c9050919050565b6000808291508390505b600185111561097c57808604811115610958576109576108c2565b5b60018516156109675780820291505b808102905061097585610925565b945061093c565b94509492505050565b6000826109955760019050610a51565b816109a35760009050610a51565b81600181146109b957600281146109c3576109f2565b6001915050610a51565b60ff8411156109d5576109d46108c2565b5b8360020a9150848211156109ec576109eb6108c2565b5b50610a51565b5060208310610133831016604e8410600b8410161715610a275782820a905083811115610a2257610a216108c2565b5b610a51565b610a348484846001610932565b92509050818404811115610a4b57610a4a6108c2565b5b81810290505b9392505050565b6000610a638261077d565b9150610a6e8361077d565b9250610a9b7fffffffffffffffffffffffffffffffffffffffffffffffffffffffffffffffff8484610985565b905092915050565b6000610aae8261077d565b9150610ab98361077d565b9250828202610ac78161077d565b91508282048414831517610ade57610add6108c2565b5b5092915050565b7f4e487b7100000000000000000000000000000000000000000000000000000000600052601260045260246000fd5b6000610b1f8261077d565b9150610b2a8361077d565b925082610b3a57610b39610ae5565b5b828204905092915050565b6000610b508261077d565b9150610b5b8361077d565b9250828203905081811115610b7357610b726108c2565b5b92915050565b600081519050610b8881610787565b92915050565b600060208284031215610ba457610ba3610778565b5b6000610bb284828501610b79565b91505092915050565b610bc481610830565b8114610bcf57600080fd5b50565b600081519050610be181610bbb565b92915050565b600060208284031215610bfd57610bfc610778565b5b6000610c0b84828501610bd2565b9150509291505056fea26469706673582212207230126607991b9a88d93b1f53320bac31ea1d7b50df9f7d6863c7a84457edde64736f6c63430008110033",
  "linkReferences": {},
  "deployedLinkReferences": {}
}